:02000000352B9E
:10000600083083120313F2007208003C03181F28FD
:1000160086130000000080303605F1007108003AB2
:10002600031D172806131828061786170000000058
:0A003600B60D3610F203072808008B
:1000400083120313861206123508B6000320061623
:020050000800A6
:100052000730831203133305F00040307004B500FB
:1000620020207F303405F00080307004B50020205D
:02007200080084
:0E0074008312031321088A002008820008006E
:10008200831203137008F100F0010830FC007108BC
:10009200F40C03185028FC0B4928F101003403101A
:1000A2005528F40C0318F107F10CF00CFC0B522844
:0200B200080044
:1000B40083120313861606123308B60003200616AD
:0200C400080032
:1000C60083120313B301B4012920AE01AF018030BE
:1000D6002F06F0008030013A7002031D7428F830B4
:1000E6002E0203187C28B3015A20AE0A0319AF0A60
:0400F6006A2808006C
:1000FA00831203132E08B3002F08B40029202030DE
:10010A00300203188928D82830087F3C03188E2823
:10011A00D828B101053031020318D62850303002F0
:10012A000318B228FF303005F0002030F002053005
:10013A00F40041203108F007F1010318F10ABA303E
:10014A00F00706300318013EF1077008A000710895
:10015A00A1003A208A110A12B20030084F3C031853
:10016A00D128FF303005F0005030F0020530F4009D
:10017A0041203108F007F1010318F10AC930F007EC
:10018A0005300318013EF1077008A0007108A100AC
:10019A003A208A110A12B2003208B3005A20B10A70
:0801AA008F28B3015A20080060
:1001B20083120313AD012708B3002808B4002920D5
:1001C200AD012A082D0203180A2A2D082902031854
:1001D20004292908F100F201F10DF20D71108030AD
:1001E200F000803072067002031DF92871082D029A
:1001F20003180429270AB30029082D02F000700809
:100202002807B40029202908F100F201F10DF20DAE
:10021200711080307206F00080307002031D1329C5
:100222002D087102031833290330F0002908F40065
:1002320041208030F200803071067202031D2329B2
:1002420070082D020318332902302707B30029084A
:10025200F000F00D701070082D02F00070082807F1
:10026200B40029200330F0002908F4004120803036
:100272007106F20080307202031D41292D087002BE
:10028200031866292908F100F201F10DF20D71102F
:10029200F10DF20D71108030F000803072067002A4
:1002A200031D552971082D020318662903302707FB
:1002B200B3000330F0002908F400412070082D0239
:1002C200F00070082807B40029202908F100F20183
:1002D200F10DF20D7110F10DF20D711080307206F8
:1002E200F00080307002031D78292D087102031876
:1002F2009A290530F0002908F40041208030F200EC
:10030200803071067202031D882970082D020318BD
:100312009A2904302707B3002908F000F00D701065
:10032200F00D701070082D02F00070082807B4005C
:1003320029200530F0002908F400412080307106A0
:10034200F20080307202031DA8292D0870020318E2
:10035200C9290630F0002908F40041208030F2005B
:10036200803071067202031DB82970082D0203182D
:10037200C92905302707B3000530F0002908F40029
:10038200412070082D02F00070082807B4002920CF
:100392000630F0002908F400412080307106F20096
:1003A20080307202031DD7292D0870020318F82924
:1003B2000730F0002908F40041208030F20080303C
:1003C20071067202031DE72970082D020318F8292D
:1003D20006302707B3000630F0002908F400412058
:1003E20070082D02F00070082807B40029202D089B
:1003F2002B07F0002C080318013EF1007008A00042
:100402007108A1003A208A110A12B3005A20AD0ADB
:04041200E2280800D4
:10041600831203132708003C0318122AA70328088F
:10042600003C0318172AA8032808F0000630F40039
:1004360041207008A8002708B3007008B4002920DE
:10044600203029020318282A772A29087F3C031816
:100456002D2A772AAA0105302A020318752A503058
:1004660029020318512AFF302905F0002030F00236
:100476000530F40041202A08F007F1010318F10ABB
:10048600BA30F00706300318013EF1077008A000E5
:100496007108A1003A208A110A12AB0029084F3CC4
:1004A6000318702AFF302905F0005030F00205309D
:1004B600F40041202A08F007F1010318F10AC930B7
:1004C600F00705300318013EF1077008A000710817
:1004D600A1003A208A110A12AB002B08B3005A2059
:0A04E600AA0A2E2AB3015A200800CA
:1004F000831203132708003C03187F2AA703280848
:10050000003C0318842AA8032708B3002808B40075
:1005100029202808F0000630F40041207008A800C7
:100520002908A0002A08A1003A208A110A12F00026
:1005300070080319AE2A2708AE002808AF00290862
:10054000A0002A08A1003A208A110A12B0007D20DA
:0E055000A90A0319AA0A0630A807902A080073
:10055E008316031386110612861206138613831250
:10056E00861606164230FD00FD0BBB2A00008611D2
:10057E000D30FC00FB30FD00FD0BC32AFC0BC32A23
:10058E000000000086152130B5002020C830B500CF
:10059E0020201330B50020202030B5002020093057
:1005AE00B50020204130FC00EE30FD00FD0BDD2AB1
:1005BE00FC0BDD2A000063200D30FC00FB30FD003B
:1005CE00FD0BE72AFC0BE72A000000000830B500FF
:1005DE0020200D30FC00FB30FD00FD0BF42AFC0B3F
:0E05EE00F42A000000000C30B50020200800A8
:1005FC0083120313A901AA01B301B4012920A90193
:10060C00AA0180302A06F0008030013A7002031DE6
:10061C00112BF83029020318282B29082707F00082
:10062C0028080318013E2A07F1007008A000710881
:10063C00A1003A208A110A12B3005A20A90A031900
:06064C00AA0A072B0800BA
:100652003A208A110A128000840AA00A0319A10A08
:08066200F003031D292B080021
:10066A00413083120313A600AF220230A7000530DF
:10067A00A8003730A9000B221030FB003930FC00EB
:10068A000D30FD00FD0B472BFC0B472BFB0B472BBB
:10069A000000000063200130A2000030A300803077
:1006AA002306F00080307002031D5D2B0730220202
:1006BA000318882B0130A4000030A50080302506DD
:1006CA00F00080307002031D6C2B0F3024020318D7
:1006DA00842B2208A7002408A8002608A9000B22B8
:1006EA00A60A8230FC00DD30FD00FD0B7A2BFC0BE4
:1006FA007A2B00000000A40A0319A50A632BA20A98
:10070A000319A30A542B0B30FB002630FC005D3082
:10071A00FD00FD0B8E2BFC0B8E2BFB0B8E2B000092
:10072A00000063200330A7000630A800E630A900C5
:10073A000730AA0078220B30FB002630FC005D301F
:10074A00FD00FD0BA62BFC0BA62BFB0BA62B00001A
:10075A00000063200330A7002630A8001E30A9003D
:10076A003C30AA00AA30AB000730AC00D920632085
:10077A00D130A7000330A800FE220630FB00133058
:10078A00FC00AD30FD00FD0BC82BFC0BC82BFB0B8E
:08079A00C82B00000000D02B69
:1007A2000034F83400340034C034B8349834E034BF
:1007B20000340034F834003400340034F8340034A7
:1007C2000034003480348034803480348034803487
:1007D200003400340034F034183408344834D83447
:1007E20000340034F83448344834B034003400342F
:1007F200F034083408340834F03400340034F83467
:10080200003400340034F83400340034F83448340E
:1008120048343034003400340034003408340834AE
:10082200C8347834183400340034003400340034CE
:100832000034003400340034003400340034003416
:100842000034003400340034003403340034023401
:1008520001340034003400340334013401340234EE
:1008620002340234013400340034003400340034E1
:1008720000340034003400340034003400340134D5
:1008820003340234023403340034003403340034B9
:1008920000340334003400340134023402340234AC
:1008A200013400340034013402340234023401349D
:1008B2000034003403340034003400340034003493
:1008C2000034003400340334013400340034003482
:1008D2000034003400340034003400340034003476
:1008E2000034003400340034003400340034003466
:1008F20000343E34633441344134223400343E34D3
:100902004134413441343E34003400347F340334C2
:100912000C34703470340C3403347F3400347F343C
:10092200093409340634003400343F34403440344E
:1009320040343F340034013401347F340134013413
:1009420000347F3449344934493400347F34093423
:100952000934763400340034003400347F344934AE
:100962004934493400347F3403340C3470347F34D6
:10097200003400343E346334413449347B3400342F
:1009820000340034003400340034003400340034C5
:1009920000340034003400340034E0342034203495
:1009A20020340034E0346034803400340034803445
:1009B2006034E0340034E034203420342034C03455
:1009C2000034E0342034203420340034E034203445
:1009D20020346034C03400340034E0342034203415
:1009E2006034C03400340034E03420342034203405
:1009F2000034E034203420346034C0340034003415
:100A02000034C03420342034603400342034C03404
:100A12000034C0342034C0342034203460340034F4
:100A220020342034E034203420340034E034603484
:100A320080340034003480346034E03400340034D4
:100A420000340F3409340934093400340F340034CB
:100A520001340E340E34013400340F3400340F34B8
:100A6200093409340934063400340F3409340934A2
:100A7200093400340F34083408340C340734003499
:100A820000340F34083408340C3407340034003492
:100A92000F3409340934093400340F34083408346B
:100AA2000C3407340034003400340C340934093473
:100AB20006340034003400340F34003400340C3473
:100AC2000934093406340034003400340F3400345D
:100AD200003400340F34003401340E340E34013447
:100AE20000340F3400340034003400340034003455
:100AF2000034003400340034003400340034003454
:100B02000034003400340034003400340034003443
:100B12000034003400340034003400340034003433
:100B22000034003400340034003400340034003423
:100B32000034003400340034003400340034003413
:100B42000034003400340034003400340034003403
:100B520000340034003400340034003400340034F3
:100B620000340034003400340034003400340034E3
:100B720000340034003400340034003400340034D3
:100B820000340034003400340034003400340034C3
:100B92007F3409340934093406343E344134513443
:100BA20021345E347F3409341934293446344634CE
:100BB2004934493449343134013401347F34013405
:100BC20001343F344034403440343F341F34203405
:100BD200403420341F343F344034383440343F34BE
:100BE20063341434083414346334073408347034EE
:100BF20008340734613451344934453443340034C1
:100C02007F34413441340034023404340834103423
:100C120020340034413441347F340034043402340B
:100C220001340234043440344034403440344034DB
:100C32000034013402340434003420345434543443
:100C4200543478347F344834443444343834383477
:100C520044344434443420343834443444344834FE
:100C62007F343834543454345434183408347E3491
:100C72000934013402340C345234523452343E3486
:100C82007F340834043404347834003444347D34FA
:100C9200403400342034403444343D3400347F3412
:100CA2001034283444340034003441347F34403426
:100CB20000347C3404341834043478347C340834FA
:100CC20004340434783438344434443444343834C6
:100CD2007C34143414341434083408341434143482
:100CE20018347C347C3408340434043408344834F2
:100CF200543454345434203404343F34443440346F
:100D020020343C344034403420347C341C3420348D
:100D1200403420341C343C344034303440343C348D
:100D2200443428341034283444340C34503450348D
:100D320050343C344434643454344C3444340034F9
:100D42000834363441340034003400347F34003403
:100D5200003400344134363408340034103408345A
:100D62000834103408347834463441344634783404
:020D720000344B
:100D740000340034003400340034003400345F3470
:100D8400003400340034073400340734003414349D
:100D94007F3414347F34143424342A347F342A3492
:100DA400123423341334083464346234363449340A
:100DB40055342234503400340534033400340034C0
:100DC40000341C342234413400340034413422349D
:100DD4001C340034143408343E34083414340834D5
:100DE40008343E3408340834003450343034003489
:100DF40000340834083408340834083400346034C7
:100E040060340034003420341034083404340234A0
:100E14003E345134493445343E34003442347F3412
:100E2400403400344234613451344934463421343A
:100E3400413445344B3431341834143412347F344F
:100E44001034273445344534453439343C344A3439
:100E540049344934303401347134093405340334A9
:100E640036344934493449343634063449344934FF
:100E740029341E340034363436340034003400341B
:100E840056343634003400340834143422344134B3
:100E94000034143414341434143414340034413409
:100EA40022341434083402340134513409340634FD
:100EB40032344934793441343E347E34113411347B
:100EC40011347E347F3449344934493436343E3421
:100ED40041344134413422347F3441344134223466
:100EE4001C347F3449344934493441347F3409341F
:100EF4000934093401343E344134493449347A34B0
:100F04007F340834083408347F34003441347F3467
:100F1400413400342034403441343F3401347F348C
:100F240008341434223441347F344034403440345F
:100F340040347F3402340C3402347F347F3404343C
:100F4400083410347F343E344134413441343E3427
:100F540002340F343F34FC34FC3484340634063415
:100F64004234E3340334C3342234E6340434EC34FA
:100F7400AC34EC340C34C4342634263423340334F3
:100F840003348334E634FE343F340E340034003406
:100F94000034003407341F347E34F834E034E3344E
:100FA400E034E134E234E134E034E034E034E03499
:100FB400E034E134E234E234E134F034FC343F34FC
:080FC40007340134003400344D
:100FCC00533479347334743465346D34203445348B
:100FDC006D346234653464346434653464340034A0
:02400E004A2145
:00000001FF
